:020000040000FA
:10000000C0110020650100007F01000039050000DB
:1000100000000000000000000000000000000000E0
:100020000000000000000000000000007506000055
:100030000000000000000000A10500008D06000087
:100040007105000079050000810500008D050000A4
:1000500011040000D10A0000990B0000A50B00005C
:1000600059050000610500005D06000069060000FA
:100070004905000051050000B90A0000C10A00004E
:10008000C90A000089010000D90A0000E10A000045
:10009000E90A0000690500002D0C0000890100003C
:1000A0009303000089010000190C0000B10B00004F
:1000B000FD03000089010000190400000504000090
:1000C00000F002F800F03EF80CA030C80838241800
:1000D0002D18671EA246AB4654465D46AC4201D180
:1000E00000F030F87E460F3EB6460FCC0126334274
:1000F00000D0FB1A3343A246AB4618470414000055
:1001000024140000103A02D378C878C1FAD85207F4
:1001100001D330C830C101D504680C6070470000BD
:100120000023002400250026103A01D378C1FBD813
:10013000520700D330C100D50B6070471FB51FBDFB
:1001400010B510BD00F0F3F81146FFF7F7FF00F00F
:1001500071FD00F00BF903B4FFF7F2FF03BC00F0F0
:1001600011F900000C480D4A002100A1814200D97C
:1001700002440B4802600B4880470B480047FEE7EB
:10018000FEE7FEE7FEE7FEE7FEE700000748084956
:10019000084A094B704700000000002000000000E2
:1001A00008ED00E0B10A0000C1000000C00D002011
:1001B000C0110020C00F0020C00F00200022030942
:1001C0008B422CD3030A8B4211D300239C464EE072
:1001D00003460B433CD4002243088B4231D303092E
:1001E0008B421CD3030A8B4201D394463FE0C309E0
:1001F0008B4201D3CB01C01A524183098B4201D3F8
:100200008B01C01A524143098B4201D34B01C01AE2
:10021000524103098B4201D30B01C01A5241C3085A
:100220008B4201D3CB00C01A524183088B4201D3C9
:100230008B00C01A524143088B4201D34B00C01AB5
:100240005241411A00D201465241104670475DE0CA
:10025000CA0F00D04942031000D3404253409C468D
:10026000002203098B422DD3030A8B4212D389014A
:10027000FC2212BA030A8B420CD3890192118B42E1
:1002800008D3890192118B4204D389013AD092118B
:1002900000E08909C3098B4201D3CB01C01A524146
:1002A00083098B4201D38B01C01A524143098B420F
:1002B00001D34B01C01A524103098B4201D30B01F8
:1002C000C01A5241C3088B4201D3CB00C01A52411D
:1002D00083088B4201D38B00C01A5241D9D2430804
:1002E0008B4201D34B00C01A5241411A00D2014641
:1002F0005241104663465B1001D34042002B00D5AB
:100300004942704763465B1000D3404201B505493E
:10031000002802DC491C084000E00846C046C046F0
:1003200002BD00BFFFFFFF7F7047704770477546F3
:1003300000F024F8AE46050069465346C008C000E8
:10034000854618B020B5FFF721FF60BCB6460026F1
:100350000027C0C5C0C5C0C5C0C5C0C5C0C5C0C5D3
:10036000C0C5403D490849008D46704710B5044658
:10037000C046C0462046FFF7EEFE10BD004870475D
:100380000800002001491820ABBEFEE7260002004D
:10039000704780B500F01CF8C046C04680BD000024
:1003A00002490A6882430A607047C046B42400408C
:1003B000034909680140481E814108467047C0460C
:1003C000B0240040014800687047C046A0240040A7
:1003D00080B50120FFF7ECFF012806D10120FFF7CF
:1003E000DFFFFFF7EFFF0149088080BD20010020FB
:1003F0000148012101607047C024004080B5C0461B
:10040000C04680BD80B5C046C046C046C04680BD1F
:1004100080B5C046C04680BD80B5C046C046C04617
:10042000C04680BD0649074ACA60074ACA600A68D2
:100430000C239A438007000F1018086000207047B3
:10044000200002405A5A0000A5A500000268CA40D8
:10045000012010407047000080B5034A8018012237
:1004600000F009F9002080BD140D0240FEB51546CC
:100470000E4601901949471838460C300024314681
:1004800022460294164B9847B00001990818194962
:1004900044502A7838463146114CA04738461C3023
:1004A0006A783146A04738462030AA783146A047BE
:1004B00038462430EA783146A0472C372A79384626
:1004C0003146A04768790121C903064A13688B4366
:1004D000C007000CC01810600298FEBD000D02405D
:1004E00077060000080F0240890040180149425079
:1004F00000207047000C024080B5034A801801229A
:1005000000F0B9F8002080BD100D024010B50122A6
:100510005203084B1C689443C007800C20181860D5
:10052000032080021A6882438807000D10181860A3
:10053000002010BD040F024081B000200090009800
:100540000028FCD001B0704780B5C046C04680BDD1
:1005500080B5C046C04680BD80B5C046C04680BD9F
:1005600080B5C046C04680BD80B5C046C04680BD8F
:1005700080B5C046C04680BD80B5C046C04680BD7F
:1005800080B5C046C046C046C04680BD80B5C046A6
:10059000C046C046C04680BD00000000000000000C
:1005A000EFF309800E4B1A6820381060F0C0444603
:1005B0004D4656465F46F0C008B572B600F0D8FD0D
:1005C00062B60CBC116808681030F0C8A046A94695
:1005D000B246BB4680F309882038F0C81847C046A9
:1005E00068000020FEB51C200124214600F006FA18
:1005F000200201AEB0800025019527033846214630
:100600003246154B9847384629463246124FB8476E
:1006100040270921384632460F4B98470821384673
:1006200032460D4B98472846214632460A4B98479A
:10063000094B38462946324698470722384629460C
:10064000FFF752FF20462946FFF760FF06222846A3
:100650002146FFF749FFFEBD6D04000080B5C0468E
:10066000C046C046C04680BD80B5C046C046C046F4
:10067000C04680BD704701238B40012A02D101682A
:10068000194301E0016899430160704710B500F01B
:100690006DFC044600F07AFE002803D0012000071C
:1006A00002490860204600F075FC10BD04ED00E032
:1006B000B0B504460578042D18D8A80001A1085843
:1006C0008746C04629070000D9060000F106000051
:1006D000FF0600001B0700001B48016803220A43B5
:1006E0000260016830220A4302601CE004251BE01E
:1006F0000320800214494A6802434A6013E012480A
:1007000081680C220A438260816803220A43826066
:10071000816830220A43826005E00720C0030A494D
:10072000CA6A0243CA6200252078012100F00EF84F
:10073000207800F09DF9607800F0EAF8A07800F0E9
:10074000F7F82846B0BDC0461020004010B5D14A89
:10075000D14B9360D14B9360042815D8784400792D
:1007600040008744021328384E00481E0B46834140
:1007700010680124A043C0181060002000294FD049
:10078000D1680905FCD54BE0042010BD264803685C
:1007900003241C430460481E0B4683415800136821
:1007A0000224A343181810600020002938D01169D2
:1007B0004906FCD534E0481E0B4683419800136877
:1007C0000424A343181810600020002928D0516980
:1007D000C904FCD524E003208003124B1C680443A9
:1007E0001C60481E0B468341D80013680824A343AD
:1007F000181810600020002912D091694906FCD514
:100800000EE0481E0B468341180113681024A343D1
:10081000181810600020002902D0D16B4903FCD5C4
:1008200010BDC0468C0D02404C1D0240FCB58C48EA
:100830000688458881880191C488078C7F4A1146C3
:100840000C3908680006430F042B0FD80094694840
:100850007B441B795B009F44024E0B10130013680E
:10086000754F3B40B34217D1254844E0002042E099
:1008700090687C4A0240BA4214D00120C0033AE09A
:10088000136B03241C40032C30D113686A4F3B4088
:10089000B3420AD11A4B2AE013683B40AB420AD15B
:1008A000184828E04B20400225E013683B40AB424B
:1008B00008D1144B1BE013683B40019CA34208D1B4
:1008C000114818E013683B40019CA34208D10E4B2D
:1008D0000DE012683A40009B9A420CD00B480AE0A7
:1008E00013683B40009CA34200D008480346106BAD
:1008F000C005000F584309684905490FC840FCBDB1
:1009000000366E01408651010024F40000093D00CC
:100910006049614A8A60614A8A60072212020B6854
:1009200093434007400D1818086000207047C046E8
:100930005849594A8A60594A8A600322D2020B6890
:1009400093438007C00C1818086000207047C04609
:10095000F0B543490E884D888C88C9888278032A6F
:1009600040D1364A1768344B1F40B74202D1C6788F
:10097000022E3DD816681E40AE4202D1C578022D27
:1009800036D815681D40A54202D1C478032C2FD853
:1009900012681A408A4202D1C178062928D8037801
:1009A00003214C03254A156BA5439B075B0C5B1980
:1009B00013634378146B1C25AC435B07DB0EE31811
:1009C0001363C3780F246401156BA5431B07DB0D6C
:1009D0005B19136380780840136B8B4318181063FE
:1009E0000020F0BDC178034A4A4303498A42D6D960
:1009F0000620F0BD00127A00006CDC0280B50A46C9
:100A000001468006044802D5DF231940001DFFF788
:100A100032FE002080BDC04620200040400010492A
:100A2000405A0549014005480268054B13405918D2
:100A3000016000207047C046FF0700000C20004006
:100A400000F8FFFF40000649405A064901400648A9
:100A50000268064B13405918016000207047C046D9
:100A6000000C1000FF0300001420004000FCFFFFFA
:100A700080B50849084A8A60084A8A600A68E02303
:100A80009A434007000E1018086000F009F8002093
:100A900080BDC046002000405A5A0000A5A50000B5
:100AA00080B5FFF7C3FE0149086080BD000000204B
:100AB00080B5FFF7F5FF80BD80B5C046C04680BD5C
:100AC00080B5C046C04680BD80B5C046C04680BD2A
:100AD00080B500F041F880BD80B5C046C04680BDFD
:100AE00080B5C046C04680BD80B5C046C04680BD0A
:100AF000FFF778FD012004037D20C5000C4F01267F
:100B000020463146FFF7F8FC284600F0EFFA204671
:100B10003146B84700212046B847402609213046D3
:100B2000B84708213046B847284600F0DFFAE6E724
:100B30005904000001218140C84302490860002097
:100B40007047C0461458004002490968C14001205E
:100B50000840704710580040B0B500242046FFF709
:100B6000F3FF012814D1012000030A4D2978002940
:100B700003D02146FFF770FC06E00021FFF7BCFC24
:100B8000FFF736FC2878441C2C700020FFF7D2FFBA
:100B9000B0BDC0462801002080B5C046C046C04652
:100BA000C04680BD80B500F007F8C046C04680BD95
:100BB00080B5C046C04680BD10B50D4C0021204612
:100BC00000F022F8002808D00021204600F014F898
:100BD000204600F01EF8074908700121204600F069
:100BE00013F8002803D00121204600F005F810BDBD
:100BF00000010040BC01002010B514300024224642
:100C0000FFF739FD204610BD80B51030FFF71EFC00
:100C100080BD0068C0B2704780B5C046C046C046BF
:100C2000C046C046C046C046C04680BD80B5C0462E
:100C3000C04680BD82B01120FFF704FF02240125C9
:100C400020462946FFF782FD2046FFF711FF1F20AF
:100C50002946FFF7D3FE2046FFF7E4FB0424204695
:100C6000FFF7DCFE1448019001A8FFF771FE68460B
:100C7000002585700480FFF71BFDFFF7D7FD0F4CA3
:100C80002060FFF70DFF7D20C1002068FFF796FA76
:100C9000401E010E0CD10A490A4A50600A480368F6
:100CA0000B400321890759180160956007201060E7
:100CB00000F014F8FEE7C0460004030C2C010020ED
:100CC000FFFFFF0010E000E020ED00E080B500F045
:100CD00051FB012801D0FFF7D9FC80BDE0B50648E3
:100CE000032100910190054805A18022002300F016
:100CF00089FA00F013FA8CBD24010020F10A0000EB
:100D00005461736B5F54657374000000F8B50E4650
:100D10000546424C676A2068001D00F02BF9681CEC
:100D200008D1002E06D020685034011D204600F066
:100D300056F9F8BD7D192068456005D3606B2168C0
:100D4000091D00F035F9F8BD206B2168091D00F080
:100D50002FF9206A854200D22562F8BD10B50446FD
:100D6000006B00F05FF9204600F05CF910BD000058
:100D7000F84D124EA86800281AD06869401C6861B6
:100D8000EC6B00F065FB002CF4D000F035F9A86C9A
:100D9000C468201D00F0EEF8E868401EE860A8680E
:100DA000401EA86000F032F92046FFF7D7FFE1E7C8
:100DB00030680228DED300F08DF9DBE73001002037
:100DC000B0B5AB4B1A461032114612688242FBD3C3
:100DD0004C680D19854203D14068001948600846E7
:100DE00044680519954206D15B689A4203D053685E
:100DF0001B19436012680260814200D00860B0BDD8
:100E0000F148016B0968002904D0016BC968C96801
:100E1000496801E00021C943016270476800002071
:100E200081B000200090F648006872B6401C00D0E7
:100E3000FEE700980028FCD001B07047F8B50446E2
:100E400000F090F90120C607894B5968002904D0A9
:100E50001878002829D1064627E00096002159611C
:100E60000722364E37461740D343F51D1D40002F4D
:100E70002A4600D132467E4E32610326B602002F4A
:100E800002D02E4F7D1BAE199519083D1D40784BA1
:100E90001E465D6029606960A91A51605B68136035
:100EA0003346B160F1603070009E0025002C3DD0CB
:100EB000304620403AD108340720204005D0241A7B
:100EC0000834600701D072B6FEE79968601E884258
:100ED0002CD200911F4610371A69394617465068C0
:100EE000A04202D23A68002AF7D15A6897421DD030
:100EF0000D683A680A60011B11290BD338194207A3
:100F000001D072B6FEE741607C601C46FFF758FFD7
:100F1000234678680099091A9960DA68914200D2EC
:100F2000D9600835002130433960786000F090FACC
:100F3000680701D072B6FEE72846F8BDBD01002063
:100F40000346083B1960011F01231B060B60014685
:100F50000C39054B0B60014620390A600F21C9434B
:100F6000890040187047C046210E0000EFF3108042
:100F700072B670470169436882689A6082685360FC
:100F80004B68834200D14A60002202610868401E1B
:100F90000860704780F310887047002102460832CD
:100FA000CB430EC002604260704700210161704770
:100FB000B0B50C68621C07D002460832134652686E
:100FC0001568A542FAD901E003695A684A60916040
:100FD0008B60596008610168491C0160B0BD4268BE
:100FE0004A6093688B6093685960916008610168FA
:100FF000491C01607047000072B681480168491CB5
:101000000160BFF34F8FBFF36F8F70477C4801685B
:10101000002903D0491E016002D0704772B6FEE776
:1010200062B67047F8B5002821D00446104E3078DB
:10103000411E8841C0070721C9430F1DE1590842DD
:1010400006D02546083D2A68002A03D072B6FEE77E
:1010500072B6FEE78143E15100F084F8E059B168CF
:101060000818B0602846FFF7ABFE00F0F1F9F8BDB4
:10107000E000002010B5074C00202060A0607D201B
:10108000C10005480068FFF799F8401E606007201E
:10109000206010BD10E000E0000000200000000013
:1010A0000B4A13681868203080F30988022080F307
:1010B0001488BFF36F8F3FBCAE4608BC04BC62B659
:1010C0001847C046C046C046C046C046C046C04697
:1010D000680000200120000703490860BFF34F8F1C
:1010E000BFF36F8F7047C04604ED00E080B5002865
:1010F00010D0D6494A69002A01D072B6FEE74A6983
:10110000521C4A610021FFF701FE00F0A1F90028FE
:1011100000D080BDFFF7DEFF80BDC046BCB5002417
:1011200000940C4D28461C3001900B480BA18022E6
:10113000234600F067F8411C0AD0012807D172B697
:10114000E0432862012028616C6200F03FF8BCBDDA
:1011500072B6FEE768000020710D000049444C455E
:1011600000000000E4484169491C41617047C046E5
:1011700070B5E1484169002902D00121816270BD4A
:1011800000248462816914231A464A43DB4DAA185D
:101190000832E443A500AE18361F3668002E06D18B
:1011A00000290FD01D4665435219491EF2E75359D5
:1011B0005B685351934201D15B685351DA68026016
:1011C000816170BD72B6FEE76800002010B5FF2097
:1011D00001040A4A13680B431360000611680143B7
:1011E0001160FFF747FF064800240460FFF758FF2F
:1011F000FFF7BEFFFFF714FE204610BD20ED00E014
:1012000004000020F0B589B007930D4606909000C9
:101210000890FFF713FE06463320C44327463337B2
:10122000002E00D19FE05420FFF708FE002857D081
:1012300001460F9803900E9F084643300590029197
:101240000B460E6308988019001F0726B0430190D3
:101250003420442806D029180A5D1A54095D401C20
:101260000029F6D10025059805709D64062F00D34E
:1012700006275F64DF62029C201D04900893FFF73D
:1012800094FE18342046FFF790FE0898C5647E400F
:10129000089886610898406208980061059845732F
:1012A00001980699079AFFF74BFE08990860039882
:1012B000002800D00160FFF79FFE8F4EF068401CB1
:1012C000F060306800280FD030690028089A04992F
:1012D0002DD13068D36AC06A984228D8326026E09F
:1012E0003046FFF79FFE3EE0089A3260F068012822
:1012F00004991CD1814C8C2D04D06019FFF74DFE50
:101300001435F8E7194C1A4F2046B84725461435CE
:101310002846B84730466430B84730463C30B84776
:1013200030465030B84734637563089A0499706842
:10133000401C7060D06AB269904200D9B06114223A
:1013400042436E488018FFF74AFEFFF75FFE3069A0
:101350000127002807D030680899C96AC06A884206
:1013600001D2FFF7B7FE384609B0F0BDF800002003
:101370009B0F000060480169002904D04069414288
:1013800041414800704701207047C046FEB55A4EA3
:101390007069002808D0F06A401CF0620020B16A31
:1013A000002900D00120FEBD706A471C77620ED371
:1013B000306B0068002801D072B6FEE7306B716BAD
:1013C00031637063B06B401CB063FFF719FD306A86
:1013D000874201D200202EE0002001900290306B65
:1013E0000068002823D0306BC068C46860688742FA
:1013F0001FD3251D2846FFF7BDFDA06A002803D096
:1014000020461830FFF7B6FDE06AB169884200D97E
:10141000B06114214143394840182946FFF7DFFDE8
:10142000E06A3168C96A8842D9D30120D6E70198B9
:10143000C043306202983168CA6A142151432F4A6E
:1014400051580129ABD90120A9E7C0466800002006
:10145000F8B5294D686900280CD0FFF7CDFD686903
:10146000401E686168690024002805D0FFF7CEFDA2
:101470002046F8BD72B6FEE7E8680028F6D00027DF
:101480001E4E686E00281CD0286FC768384618307A
:10149000FFF770FD3C1D2046FFF76CFDF86AA96957
:1014A000884200D9A8611421414370182146FFF7F2
:1014B00096FDF86A2968C96A8842E2D30120A862C9
:1014C000DFE7002F01D0FFF79BFCEC6A002C09D06E
:1014D000FFF75CFF002801D00120A862641EF7D14D
:1014E0000020E862A86A002803D0FFF7F3FD01247A
:1014F000BCE70024BAE7C0466800002030010020A5
:101500002015000000000020080000000401000079
:101510002815000008000020B8110000200100007C
:0815200000093D00AAAAAAAAD5
:04000005000000C136
:00000001FF
