:020000040000FA
:10000000C0110020150200002F020000150600009C
:1000100000000000000000000000000000000000E0
:1000200000000000000000000000000003070000C6
:1000300000000000000000009B01000025070000F8
:100040004D060000550600005D0600006906000030
:10005000A9040000650D0000410E00004D0E0000D7
:10006000350600003D060000EB060000F706000024
:10007000250600002D0600004D0D0000550D000066
:100080005D0D0000390200006D0D0000750D0000CF
:100090007D0D000045060000EB0E00003902000057
:1000A0002904000039020000D70E0000590E00009C
:1000B0009504000039020000B10400009D04000016
:1000C00000F002F800F03EF80CA030C80838241800
:1000D0002D18A246671EAB4654465D46AC4201D180
:1000E00000F030F87E460F3E0FCCB6460126334274
:1000F00000D0FB1AA246AB4633431847BC1A000097
:10010000DC1A0000103A02D378C878C1FAD8520736
:1001100001D330C830C101D504680C6070470000BD
:100120000023002400250026103A01D378C1FBD813
:10013000520700D330C100D50B6070471FB51FBDFB
:1001400010B510BD00F044F91146FFF7F7FF00F0BD
:1001500029FF00F05CF903B4FFF7F2FF03BC00F0E5
:100160001FFF0000084B19680868203080F30988D9
:10017000022080F31488BFF36F8F3FBCAE4608BCEB
:1001800004BC62B61847000008000020EFF310809E
:1001900072B6704780F310887047EFF309800E4BFA
:1001A0001A6820381060F0C044464D4656465F46F7
:1001B000F0C008B572B601F041FB62B60CBC116824
:1001C00008681030F0C8A046A946B246BB4680F386
:1001D00009882038F0C818470800002070B5054687
:1001E0000C46164602E00FCC0FC5103E102EFAD278
:1001F000082E02D303CC03C5083E042E07D301CC3E
:1002000001C5361F03E021782970641C6D1C761E21
:10021000F9D270BD0C480D4A002100A1814200D9DD
:1002200002440B4802600B4880470B480047FEE73A
:10023000FEE7FEE7FEE7FEE7FEE7000007480849A5
:10024000084A094B70470000000000200000000031
:1002500008ED00E0450D0000C1000000C00D0020C9
:10026000C0110020C00F0020C00F002070470022E6
:1002700003098B422CD3030A8B4211D300239C46E3
:100280004EE003460B433CD4002243088B4231D35B
:1002900003098B421CD3030A8B4201D394463FE0EF
:1002A000C3098B4201D3CB01C01A524183098B424F
:1002B00001D38B01C01A524143098B4201D34B0138
:1002C000C01A524103098B4201D30B01C01A52419B
:1002D000C3088B4201D3CB00C01A524183088B4222
:1002E00001D38B00C01A524143088B4201D34B000B
:1002F000C01A5241411A00D201465241104670477D
:100300005DE0CA0F00D04942031000D34042534081
:1003100000229C4603098B422DD3030A8B4212D341
:10032000FC22890112BA030A8B420CD38901921173
:100330008B4208D3890192118B4204D389013AD0B0
:10034000921100E08909C3098B4201D3CB01C01A85
:10035000524183098B4201D38B01C01A5241430998
:100360008B4201D34B01C01A524103098B4201D386
:100370000B01C01A5241C3088B4201D3CB00C01AF3
:10038000524183088B4201D38B00C01A5241D9D20B
:1003900043088B4201D34B00C01A5241411A00D28C
:1003A0000146634652415B10104601D34042002B88
:1003B00000D54942704763465B1000D3404201B507
:1003C0000020C046C04602BD704770477047704766
:1003D000754600F025F8AE46050069465346C0084C
:1003E000C000854618B020B5FFF728FF60BC002785
:1003F0004908B6460026C0C5C0C5C0C5C0C5C0C5F1
:10040000C0C5C0C5C0C5403D49008D46704710B548
:100410000446C046C0462046FFF79DFE10BD0000C2
:10042000004870475C0D002010B500F01DF8C04674
:10043000C04610BD0249496B8143014A5163704770
:100440008024004001460448006B0840002801D089
:10045000012070470020FCE7802400400148006A2A
:10046000704700008024004010B50120FFF7EAFF2C
:10047000012805D1FFF7DEFFFFF7F0FF01490880F3
:1004800010BD00006A00002001200149086070478B
:10049000C024004010B5C046C04610BD10B5C046CF
:1004A000C046C046C04610BD10B5C046C04610BDCF
:1004B00010B5C046C046C046C04610BD10B5014686
:1004C0000020084A084BDA62084ADA621A46126AC1
:1004D0000C239A438B000C2423401A43024B1A62CC
:1004E00010BD00005A5A000000000240A5A50000FF
:1004F00002461068C840C007C00F704770B5044678
:100500000D46044960180122294600F0FBF800203E
:1005100070BD0000140D024070B504460E4615462D
:100520001E4960180022314600F0ECF800201C49FA
:100530006118B20088502A7818490C396018314681
:1005400000F0E0F86A78154910316018314600F083
:10055000D9F8AA78114914316018314600F0D2F860
:10056000EA780E4918316018314600F0CBF82A7944
:100570000A4920316018314600F0C4F80948806803
:100580000121C90388436979C9030122D2031140BB
:10059000084304498860002070BD00000C0D024033
:1005A000000C0240000F024010B503460248181824
:1005B0008C000251002010BD000C024070B50446B2
:1005C0000D46044960180122294600F09BF80020DE
:1005D00070BD0000100D024010B502460C48406886
:1005E00001235B039843530301246403234018430E
:1005F000074B58601846406803239B0298438B02C0
:100600000324A40223401843014B5860002010BD6E
:10061000000F024008B50020009000BF009800289D
:10062000FCD008BD10B5C046C04610BD10B5C046D0
:10063000C04610BD10B5C046C04610BD10B5C0467E
:10064000C04610BD10B5C046C04610BD10B5C0466E
:10065000C04610BD10B5C046C04610BD10B5C0465E
:10066000C046C046C04610BD10B5C046C046C046D4
:10067000C04610BD1CB501211C2000F0A7FA0021C6
:100680006846017041708170C17001710121417132
:100690006A460803FFF740FF6A4600210120000375
:1006A000FFF73AFF6A4609214020FFF735FF6A4607
:1006B00008214020FFF730FF6A4601210020FFF7A4
:1006C0002BFF6A4600214020FFF726FF072200216A
:1006D0004020FFF769FF00210120FFF77DFF062280
:1006E00001210020FFF760FF1CBD10B5C046C046C9
:1006F000C046C04610BD10B5C046C046C046C04644
:1007000010BD704710B5012A05D1036801248C4043
:100710002343036004E0036801248C40A343036087
:1007200010BD000010B5FFF731FD044601F022F9BD
:10073000002803D001200007024948602046FFF747
:1007400029FD10BD00ED00E070B5044600252078BD
:10075000030000F0DBFB0504050C10181C0018E07A
:10076000032000F0BFFA032000F086FA11E0032016
:1007700000F05CFA0DE00321084600F0C1FA032006
:1007800000F08AFA05E0072000F00EFA01E00425E7
:1007900000BF00BF2078012100F00CF8207800F0A5
:1007A0008BFA607800F04EF9A07800F05FF92846E7
:1007B00070BD000070B505460C46002600F09AFB9F
:1007C000002C01D0012000E0002004462B0000F0A6
:1007D0009DFB05041731456074003A4800684008E5
:1007E0004000E107C90F08433649086000BF002CEC
:1007F00005D03448C0680005C00F0028F7D05EE07F
:100800003148C068032108432F49C8602D4800685B
:1008100002218843610002221140084329490860EF
:1008200000BF002C05D0274800694006C00F0028F3
:10083000F7D044E02348006804218843A100042243
:10084000114008431F49086000BF002C05D01D4817
:100850004069C004C00F0028F7D030E01B48C068D2
:100860000321890308431949C86016480068082114
:100870008843E1000822114008431249086000BF84
:10088000002C05D00F4880694006C00F0028F7D023
:1008900015E00C4800681021884321011022114006
:1008A00008430849086000BF002C05D00548C06B0C
:1008B0004003C00F0028F7D001E0042600BF00BFAE
:1008C000304670BD00200040401D0240800D0240B7
:1008D00030B589B000241422564904A8FFF77EFCE5
:1008E000544814300068039000200090019002905A
:1008F00051480188684601814F4841886846C18057
:100900004D488188684681804B48C188684641804F
:100910004948203001886846018048480068000640
:10092000450F2B0000F0F2FA05042E303E4178000E
:100930004248C0684005400D69460989884201D196
:10094000089C1EE03D48C0684005400D6946C988C6
:10095000884201D1079C14E03848C0684005400D2A
:1009600069468988884201D1069C0AE03348C068FC
:100970004005400D69464988884201D1059C00E048
:10098000049C4BE02E4C49E0684600882B4949699D
:100990008905890D884202D16846C48901E068460C
:1009A00084893BE00124E40338E02448C06B8007DD
:1009B000800F032829D1684600892049C968490564
:1009C000490D884201D1089C20E06846C0881B4937
:1009D000C9684905490D884201D1079C16E068465F
:1009E00080881649C9684905490D884201D1069C8D
:1009F0000CE0684640881149C9684905490D88429C
:100A000001D1059C02E0049C00E00D4C0B48C06B3A
:100A1000C005000F444301E0002400BF00BF0748A9
:100A200000684005410F2046C8400446204609B0F2
:100A300030BD0000A01B0000000C10000020004092
:100A400000127A0010B5044600F054FA0648006817
:100A5000072109028843210207221202114008439C
:100A600001490860002010BD0020004010B5044678
:100A700000F040FA064800680321C9028843E102F9
:100A80000322D2021140084301490860002010BD32
:100A9000002000401EB50146002200200090019079
:100AA00002903D480388684603813B484388684676
:100AB000C38039488388684683803748C38868463E
:100AC0004380887803282DD168460089334BDB6842
:100AD0005B055B0D984202D1C878022820DC68468D
:100AE000C0882E4BDB685B055B0D984202D1C8784D
:100AF000022815DC68468088284BDB685B055B0DA7
:100B0000984202D1C87803280ADC68464088234B03
:100B1000DB685B055B0D98420CD1C878062809DDBF
:100B200006201EBDC8781E4B58431E4B984201D963
:100B30000620F6E71948C06B03235B0398430B7844
:100B40005B030324640323401843144BD863184603
:100B5000C06B1C2398434B789B001C2423401843F4
:100B60000E4BD8631846C06BFF23E1339843CB7814
:100B70005B01FF24E13423401843084BD863184637
:100B8000C06B800880008B789B079B0F1843034B3A
:100B9000D8631046C5E70000000C1000002000409C
:100BA00000127A00006CDC0210B501460020064AF3
:100BB000D26B0723DB039A43CB030724E4032340D0
:100BC0001A43014BDA6310BD0020004070B50446A3
:100BD0000D4620202040002809D0202120468843AF
:100BE00004462A4621460648FFF78CFD05E02A46C2
:100BF00021460348001FFFF785FD002070BD00005F
:100C00002420004001464A00064BD21812885005A5
:100C1000400D054AD268D20AD2020243024BDA6082
:100C200000207047000C10000020004010B5014665
:100C30000020064A526903239B029A438B02032435
:100C4000A40223401A43014B5A6110BD002000400A
:100C500001464A00064BD21812889005800D054ABD
:100C60005269920A92020243024B5A610020704775
:100C7000000C10000020004010B501460020054A7D
:100C8000126930239A430B01302423401A43014B4D
:100C90001A6110BD0020004010B501460020054A31
:100CA000926930239A430B01302423401A43014BAD
:100CB0009A6110BD0020004070B50446002526460C
:100CC00000F018F906480068E02188437101E0222D
:100CD000114008430249086000F02CF8284670BD16
:100CE0000020004001460020044A12699208920048
:100CF0008B079B0F1A43014B1A617047002000407D
:100D000030B5024600200A4B9B690C24A343940093
:100D10000C252C402343064CA36123469B699B086A
:100D20009B008C07A40F2343014CA36130BD00003E
:100D30000020004010B5FFF7CBFD0149086010BD51
:100D40006400002010B5FFF7F5FF10BD10B5C046D8
:100D5000C04610BD10B5C046C04610BD10B5C04657
:100D6000C04610BD10B500F045F810BD10B5C04626
:100D7000C04610BD10B5C046C04610BD10B5C04637
:100D8000C04610BDFFF776FC1CE001210803FFF709
:100D900015FC7D20C00000F0F1FC01210803FFF7E5
:100DA000ADFB002101200003FFF7A8FB0921402033
:100DB000FFF7A4FB08214020FFF7A0FB7D20C00027
:100DC00000F0DCFCE1E700000146002001228A403F
:100DD000D243014B5A617047005800400146002041
:100DE000034B1A691346CB40D807C00F7047000069
:100DF0000058004010B50020FFF7F0FF01281BD17C
:100E00000E48007800280CD1002101200003FFF7D4
:100E1000D5FBFFF739FB09480078401C07490870EB
:100E200007E0002101200003FFF768FB00200349D1
:100E300008700020FFF7C8FF10BD00006800002008
:100E400010B5C046C046C046C04610BD10B500F043
:100E500007F8C046C04610BD10B5C046C04610BD1C
:100E600010B500210C4800F026F8002808D0002119
:100E7000094800F015F8084800F029F807490870FB
:100E80000121054800F017F8002803D0012102488D
:100E900000F006F810BD00000001004069000020CD
:100EA00070B504460D460022294620461430FFF74F
:100EB00029FC002070BD70B504460D460026294669
:100EC00020461030FFF714FB0646304670BD014641
:100ED0000868C0B2704710B5C046C046C046C0469C
:100EE000C046C046C046C04610BD10B5C046C0464C
:100EF00010BD0000024803498860034888607047BD
:100F00005A5A000000200040A5A5000030B47446E5
:100F1000641E2578641CAB4204D3635D5B00E31858
:100F200030BC18471D46F8E710B5002819DB1A4AEF
:100F300003231B02D21883089B00D2588307DC0EC0
:100F4000FF23A3409A438B071B0E8407E40EA340A4
:100F50001A43114B032424021B198408A4001A51BC
:100F600018E00E4A03071B0F083B9B089B00D25852
:100F70008307DC0EFF23A3409A438B071B0E8407D5
:100F8000E40EA3401A43054B0407240F083CA408B1
:100F9000A4001A5110BD000000E100E01CED00E0CB
:100FA00000BF70471CB51120FFF752FE012102203F
:100FB000FFF700FC0220FFF77FFE01211F20FFF753
:100FC00005FE0220FFF77AFA0420FFF71BFE00213E
:100FD0006846017104214171032181710C21C171A5
:100FE00001A8FFF757FD04216846017000214170F8
:100FF0008170FFF7A9FBFFF76BFC18490860FFF74A
:1010000099FE7D21C90015480068FFF730F90446B4
:10101000601E1349884200D90CE0601E11494861E6
:101020000321081FFFF780FF00200E498861072079
:10103000086100BF0020C043002809DB00BF00BFDB
:10104000C206D20E01219140074A116000BF00BFC5
:1010500000BF00F013F800BFFEE700000000002012
:10106000FFFFFF0000E000E000E100E010B500F04D
:101070006FFC012801D0FFF755FB10BD1CB50648D9
:101080000321002380220091019004A1064800F072
:1010900031FC00F095FB1CBD040000205461736B13
:1010A0005F54657374000000850D0000F8B50546B7
:1010B0000E461748076817480068001D00F092FAAE
:1010C000681C002808D1002E06D012480168091DAE
:1010D000114800F0C6FA1AE07C190E480068446016
:1010E000BC4207D20B480168091D0C48006800F09B
:1010F0009DFA0CE007480168091D0948006800F0E6
:1011000095FA08480068844201D206480460F8BD98
:101110001C000020080000204801002010000020D2
:101120000C0000203800002010B5044600F0A6FA9C
:1011300020480068401C1F4908601F4800680028BC
:1011400008D11D4804600846006801280ED100F04F
:1011500017F90BE019480068002807D11648006805
:10116000C06AE16A884201D81348046014480068E4
:10117000401C134908601349E06A0968884202D993
:101180001049E06A08601422E16A51430E4A881847
:10119000211D00F066FA00F07FFA08480068002878
:1011A00007D005480068C06AE16A884201D200F0B1
:1011B000D9FA10BD180000200800002024000020EB
:1011C00034000020200000206C00002070B525E0D5
:1011D00000F02CFB14480068002801D1012000E039
:1011E0000020054600F064FC002D17D100F046FAFF
:1011F0000D48C068C468201D00F0F4F90B48006871
:10120000401E0A4908600A480068401E08490860F4
:1012100000F042FA204600F00DF800BF04480068D4
:101220000028D5D170BD0000340100201800002036
:101230001400002010B50446206B00F041FA20464F
:1012400000F03EFA10BD000030B503239B021748A2
:101250004407640F002C05D0C01DC008C000134C0B
:10126000041B1B1B0246124C22600024104D6C60B4
:10127000D0180838C008C0000E4C206000240D4D66
:101280002D686C600B4D2D682C601146441A4C6023
:10129000084C24680C60084D4C682C60074D4C6865
:1012A0002C600124E407064D2C6030BD5C01002059
:1012B0004C000020540000205C000020580000205A
:1012C0006000002000BFFFF781FF0348006801288D
:1012D000F9D900F047FAF6E76C000020FFB581B0BD
:1012E0000F460A9E0C9C216B0398401E8000081834
:1012F00000900098C008C000009000984007400F80
:10130000002801D1012000E00020002802D172B69F
:1013100000BFFEE7002508E0795D204634304155E6
:10132000785D002800D102E06D1C102DF4D300BFC1
:10133000002143200155072E00D30626E66266648D
:101340000020A064201D00F06EF92046183000F047
:101350006AF924610720801BA06164620020E064B8
:10136000002150200155049A0199009800F02AF9B3
:1013700020600B98002801D00B98046005B0F0BDE8
:1013800010B5002406E0142161430E4A881800F0CD
:101390003DF9641C072CF6D30B4800F037F90B48D5
:1013A00000F034F90A4800F031F90A4800F02EF94B
:1013B000094800F02BF90448084908600348084927
:1013C000086010BD6C000020F80000200C01002017
:1013D0002001002034010020480100200C000020E2
:1013E0001000002010B50146164800E000680368B0
:1013F0008B42FBD3024643689B188B4204D143685F
:101400004C681B19436001460A464B689B180468E8
:10141000A34211D10C4C03682468A34208D04B6846
:10142000046864681B194B6003681B680B6005E067
:10143000054B1B680B6001E003680B60884200D01D
:10144000016010BD4C000020540000200B490968C9
:101450000968002901D1012100E00021002904D000
:101460000021C943064A116006E004490968C968B9
:10147000C868034A41681160704700000C000020F2
:101480003800002007480068401C002801D10120D6
:1014900000E00020002802D172B600BFFEE772B65D
:1014A00000BFFEE748000020F8B504460020009089
:1014B00000F0BCF93E480068002801D1FFF7C4FEE7
:1014C0003C4800682040002861D1002C15D0083429
:1014D0006007400F002810D06007400F0821081A4D
:1014E00004196007400F002801D1012000E000200E
:1014F000002802D172B600BFFEE7002C47D02E486C
:101500000068844243D82D4E3046056801E02E46DF
:101510002D686868A04202D228680028F7D12448C4
:101520000068854233D03068083000902868306009
:101530006868001B102813D92F197807400F00285E
:1015400001D1012000E00020002802D172B600BFC6
:10155000FEE76868001B78606C603846FFF742FF62
:10156000154968680968081A134908600846006840
:1015700013490968884203D20F480068104908607F
:101580000C4968680968084368600020286000F01A
:101590008FFA00984007400F002801D1012000E099
:1015A0000020002802D172B600BFFEE70098F8BD07
:1015B0005400002060000020580000204C00002053
:1015C0005C000020001F01231B060360001F016058
:1015D000001F034B0360143802602038704700007E
:1015E0008514000001460A694B68886898608B681A
:1015F000486858605068884201D18868506000206F
:1016000008611068401E106010687047014608317C
:1016100041600021C943816001460831C160016118
:1016200000210160704700210161704710B502463A
:101630000B685C1C002C01D1106907E010460830D3
:1016400000E04068446824689C42FAD944684C60D1
:101650004C68A160886041600A611468641C146071
:1016600010BD42684A6093688B60936859609160CE
:10167000086103685B1C03607047000072B6054890
:101680000068401C03490860BFF34F8FBFF36F8FA2
:10169000704700004800002008480068002802D178
:1016A00072B600BFFEE705480068401E03490860A7
:1016B00008460068002800D162B670474800002044
:1016C00070B506463546002E35D0083D2C461A49E1
:1016D000606809680840002801D0012000E000206F
:1016E000002802D172B600BFFEE72068002801D1B1
:1016F000012000E00020002802D172B600BFFEE702
:101700000D49606809680840002814D02068002846
:1017100011D10949606809688843606000F086F863
:101720000649606809684018044908602046FFF7C8
:1017300059FE00F0BDF970BD600000205800002087
:1017400010B57D21C90005480068FEF790FD401ED8
:10175000034948610720086110BD000064000020B3
:1017600000E000E00120000703494860BFF34F8F0D
:10177000BFF36F8F7047000000ED00E070B50446C6
:101780000025002C14D00D480068002801D101204C
:1017900000E00020002802D172B600BFFEE700F092
:1017A00045F800212046FFF781FC00F081F905464D
:1017B000002D01D1FFF7D6FF70BD000040000020D2
:1017C0001CB5134800210B4680220091019011A105
:1017D000124800F08FF80446012C0DD172B600209B
:1017E000C0430F49086001200E49086000200E49DF
:1017F000086000F063F80AE0601C002801D00120B6
:1018000000E00020002802D172B600BFFEE71CBD38
:101810003C00002049444C4500000000C512000077
:1018200038000020240000201C000020024800682E
:10183000401C014908607047400000201A480068B9
:10184000002803D00120194908602CE00020174926
:1018500008601748016805E0002902D172B600BF90
:10186000FEE7491E14204843124A1058002801D1AF
:10187000012000E000200028EED114224A430D4B45
:10188000D018426852684260024608324368934268
:1018900002D14268526842604268D268064B1A60C0
:1018A0000348016000BF7047400000202C0000206A
:1018B000200000206C0000200800002010B50B481C
:1018C000006AFF2109040843084908620846006AC3
:1018D000FF210906084305490862FFF731FF002090
:1018E00003490860FEF73EFC002010BD00ED00E05B
:1018F00048000020FFB585B01746B800FFF7D4FDBB
:101900000646002E0BD05420FFF7CEFD0446002CD7
:1019100001D0266304E03046FFF7D2FE00E0002449
:10192000002C10D000220F990E986B4613C303921F
:101930003A46089B06990598FFF7D0FC2046FFF72A
:10194000F3FB012501E00025ED43284609B0F0BD79
:1019500006490968002901D1012006E00449096807
:10196000002901D1022000E000207047240000205F
:1019700040000020F8B50020009042480068002890
:1019800072D141480068451C3F480560002D1CD1BC
:101990003E4800680068002801D1012000E00020D6
:1019A000002802D172B600BFFEE738480768384801
:1019B0000068364908603648076036480068401CB1
:1019C00034490860FFF742FD00BF33480068854294
:1019D0003DD300BF2D4800680068002801D10120D8
:1019E00000E00020002804D00020C0432A490860FD
:1019F0002CE026480068C068C4686668B54202D218
:101A00002548066022E0201DFFF7ECFDA06A0028B3
:101A100003D020461830FFF7E5FD2049E06A096849
:101A2000884202D91D49E06A08601422E16A5143E4
:101A30001B4A8818211DFFF714FE1A49E06A09683D
:101A4000C96A8842C6D301200090C3E700BF154889
:101A50000068C06A1421484311490858012801D977
:101A60000120009005E0FFE70F480068401C0E4988
:101A700008600E480068002801D0012000900098FE
:101A8000F8BD0000400000201C0000200C000020D9
:101A9000100000203000002038000020200000202E
:101AA0006C00002008000020280000202C000020EE
:101AB00070B50024002632480068002802D172B6B2
:101AC00000BFFEE7FFF7DAFD2D480068401E2C49F5
:101AD00008600846006800284DD12A4800680028A0
:101AE00049D022E02848C068C46820461830FFF773
:101AF00079FD201DFFF776FD2449E06A09688842D8
:101B000002D92249E06A08601422E16A5143204A5E
:101B10008818211DFFF7A5FD1E49E06A0968C96AFA
:101B2000884202D301201C49086017480068002839
:101B300001D1012000E000200028D3D0002C01D0EA
:101B4000FFF784FC15480568002D0DD000BFFFF796
:101B500011FF002802D001200F4908606D1E002DE2
:101B6000F5D100200D4908600B480068002802D01C
:101B70000126FFF7F7FDFFF78FFD304670BD00002F
:101B8000400000201800002020010020200000203C
:101B90006C000020080000202C00002028000020FD
:101BA00000093D0000127A000024F4004086510133
:101BB00000366E0100800096D81B00000000002057
:101BC0006C00000004010000441C00006C000020B8
:101BD000541100002001000000000000000000007F
:101BE00000000000000000000000000000000000F5
:101BF00000000000000000000000000000000000E5
:101C000000000000000000000000000000000000D4
:101C100000000000000000000000000000000000C4
:101C2000AAAAAAAA0000000000000000000000000C
:101C300000000000000000000000000000093D005E
:041C400000000000A0
:04000005000000C136
:00000001FF
